{
  "contractName": "ArmanToken",
  "abi": [
    {
      "inputs": [],
      "stateMutability": "nonpayable",
      "type": "constructor"
    },
    {
      "inputs": [
        {
          "internalType": "address",
          "name": "spender",
          "type": "address"
        },
        {
          "internalType": "uint256",
          "name": "allowance",
          "type": "uint256"
        },
        {
          "internalType": "uint256",
          "name": "needed",
          "type": "uint256"
        }
      ],
      "name": "ERC20InsufficientAllowance",
      "type": "error"
    },
    {
      "inputs": [
        {
          "internalType": "address",
          "name": "sender",
          "type": "address"
        },
        {
          "internalType": "uint256",
          "name": "balance",
          "type": "uint256"
        },
        {
          "internalType": "uint256",
          "name": "needed",
          "type": "uint256"
        }
      ],
      "name": "ERC20InsufficientBalance",
      "type": "error"
    },
    {
      "inputs": [
        {
          "internalType": "address",
          "name": "approver",
          "type": "address"
        }
      ],
      "name": "ERC20InvalidApprover",
      "type": "error"
    },
    {
      "inputs": [
        {
          "internalType": "address",
          "name": "receiver",
          "type": "address"
        }
      ],
      "name": "ERC20InvalidReceiver",
      "type": "error"
    },
    {
      "inputs": [
        {
          "internalType": "address",
          "name": "sender",
          "type": "address"
        }
      ],
      "name": "ERC20InvalidSender",
      "type": "error"
    },
    {
      "inputs": [
        {
          "internalType": "address",
          "name": "spender",
          "type": "address"
        }
      ],
      "name": "ERC20InvalidSpender",
      "type": "error"
    },
    {
      "anonymous": false,
      "inputs": [
        {
          "indexed": true,
          "internalType": "address",
          "name": "owner",
          "type": "address"
        },
        {
          "indexed": true,
          "internalType": "address",
          "name": "spender",
          "type": "address"
        },
        {
          "indexed": false,
          "internalType": "uint256",
          "name": "value",
          "type": "uint256"
        }
      ],
      "name": "Approval",
      "type": "event"
    },
    {
      "anonymous": false,
      "inputs": [
        {
          "indexed": true,
          "internalType": "address",
          "name": "from",
          "type": "address"
        },
        {
          "indexed": true,
          "internalType": "address",
          "name": "to",
          "type": "address"
        },
        {
          "indexed": false,
          "internalType": "uint256",
          "name": "value",
          "type": "uint256"
        }
      ],
      "name": "Transfer",
      "type": "event"
    },
    {
      "inputs": [
        {
          "internalType": "address",
          "name": "owner",
          "type": "address"
        },
        {
          "internalType": "address",
          "name": "spender",
          "type": "address"
        }
      ],
      "name": "allowance",
      "outputs": [
        {
          "internalType": "uint256",
          "name": "",
          "type": "uint256"
        }
      ],
      "stateMutability": "view",
      "type": "function"
    },
    {
      "inputs": [
        {
          "internalType": "address",
          "name": "spender",
          "type": "address"
        },
        {
          "internalType": "uint256",
          "name": "value",
          "type": "uint256"
        }
      ],
      "name": "approve",
      "outputs": [
        {
          "internalType": "bool",
          "name": "",
          "type": "bool"
        }
      ],
      "stateMutability": "nonpayable",
      "type": "function"
    },
    {
      "inputs": [
        {
          "internalType": "address",
          "name": "account",
          "type": "address"
        }
      ],
      "name": "balanceOf",
      "outputs": [
        {
          "internalType": "uint256",
          "name": "",
          "type": "uint256"
        }
      ],
      "stateMutability": "view",
      "type": "function"
    },
    {
      "inputs": [],
      "name": "blockReward",
      "outputs": [
        {
          "internalType": "uint256",
          "name": "",
          "type": "uint256"
        }
      ],
      "stateMutability": "view",
      "type": "function"
    },
    {
      "inputs": [],
      "name": "decimals",
      "outputs": [
        {
          "internalType": "uint8",
          "name": "",
          "type": "uint8"
        }
      ],
      "stateMutability": "view",
      "type": "function"
    },
    {
      "inputs": [],
      "name": "name",
      "outputs": [
        {
          "internalType": "string",
          "name": "",
          "type": "string"
        }
      ],
      "stateMutability": "view",
      "type": "function"
    },
    {
      "inputs": [],
      "name": "owner",
      "outputs": [
        {
          "internalType": "address",
          "name": "",
          "type": "address"
        }
      ],
      "stateMutability": "view",
      "type": "function"
    },
    {
      "inputs": [],
      "name": "symbol",
      "outputs": [
        {
          "internalType": "string",
          "name": "",
          "type": "string"
        }
      ],
      "stateMutability": "view",
      "type": "function"
    },
    {
      "inputs": [],
      "name": "totalSupply",
      "outputs": [
        {
          "internalType": "uint256",
          "name": "",
          "type": "uint256"
        }
      ],
      "stateMutability": "view",
      "type": "function"
    },
    {
      "inputs": [
        {
          "internalType": "address",
          "name": "to",
          "type": "address"
        },
        {
          "internalType": "uint256",
          "name": "value",
          "type": "uint256"
        }
      ],
      "name": "transfer",
      "outputs": [
        {
          "internalType": "bool",
          "name": "",
          "type": "bool"
        }
      ],
      "stateMutability": "nonpayable",
      "type": "function"
    },
    {
      "inputs": [
        {
          "internalType": "address",
          "name": "from",
          "type": "address"
        },
        {
          "internalType": "address",
          "name": "to",
          "type": "address"
        },
        {
          "internalType": "uint256",
          "name": "value",
          "type": "uint256"
        }
      ],
      "name": "transferFrom",
      "outputs": [
        {
          "internalType": "bool",
          "name": "",
          "type": "bool"
        }
      ],
      "stateMutability": "nonpayable",
      "type": "function"
    },
    {
      "inputs": [
        {
          "internalType": "uint256",
          "name": "amount",
          "type": "uint256"
        }
      ],
      "name": "setBlockReward",
      "outputs": [],
      "stateMutability": "nonpayable",
      "type": "function"
    },
    {
      "inputs": [
        {
          "internalType": "address payable",
          "name": "recipient",
          "type": "address"
        }
      ],
      "name": "destroy",
      "outputs": [],
      "stateMutability": "nonpayable",
      "type": "function"
    }
  ],
  "bytecode": "0x608060405234801562000010575f80fd5b506040518060400160405280600581526020017f41726d616e0000000000000000000000000000000000000000000000000000008152506040518060400160405280600281526020017f417200000000000000000000000000000000000000000000000000000000000081525081600390816200008e919062000644565b508060049081620000a0919062000644565b5050503360055f6101000a81548173ffffffffffffffffffffffffffffffffffffffff021916908373ffffffffffffffffffffffffffffffffffffffff1602179055506200012433620000f86200012a60201b60201c565b60ff16600a620001099190620008a5565b6103e8620001189190620008f5565b6200013260201b60201c565b62000a3e565b5f6012905090565b5f73ffffffffffffffffffffffffffffffffffffffff168273ffffffffffffffffffffffffffffffffffffffff1603620001a5575f6040517fec442f050000000000000000000000000000000000000000000000000000000081526004016200019c919062000982565b60405180910390fd5b620001b85f8383620001bc60201b60201c565b5050565b5f73ffffffffffffffffffffffffffffffffffffffff168373ffffffffffffffffffffffffffffffffffffffff160362000210578060025f8282546200020391906200099d565b92505081905550620002e1565b5f805f8573ffffffffffffffffffffffffffffffffffffffff1673ffffffffffffffffffffffffffffffffffffffff1681526020019081526020015f20549050818110156200029c578381836040517fe450d38c0000000000000000000000000000000000000000000000000000000081526004016200029393929190620009e8565b60405180910390fd5b8181035f808673ffffffffffffffffffffffffffffffffffffffff1673ffffffffffffffffffffffffffffffffffffffff1681526020019081526020015f2081905550505b5f73ffffffffffffffffffffffffffffffffffffffff168273ffffffffffffffffffffffffffffffffffffffff16036200032a578060025f828254039250508190555062000374565b805f808473ffffffffffffffffffffffffffffffffffffffff1673ffffffffffffffffffffffffffffffffffffffff1681526020019081526020015f205f82825401925050819055505b8173ffffffffffffffffffffffffffffffffffffffff168373ffffffffffffffffffffffffffffffffffffffff167fddf252ad1be2c89b69c2b068fc378daa952ba7f163c4a11628f55a4df523b3ef83604051620003d3919062000a23565b60405180910390a3505050565b5f81519050919050565b7f4e487b71000000000000000000000000000000000000000000000000000000005f52604160045260245ffd5b7f4e487b71000000000000000000000000000000000000000000000000000000005f52602260045260245ffd5b5f60028204905060018216806200045c57607f821691505b60208210810362000472576200047162000417565b5b50919050565b5f819050815f5260205f209050919050565b5f6020601f8301049050919050565b5f82821b905092915050565b5f60088302620004d67fffffffffffffffffffffffffffffffffffffffffffffffffffffffffffffffff8262000499565b620004e2868362000499565b95508019841693508086168417925050509392505050565b5f819050919050565b5f819050919050565b5f6200052c620005266200052084620004fa565b62000503565b620004fa565b9050919050565b5f819050919050565b62000547836200050c565b6200055f620005568262000533565b848454620004a5565b825550505050565b5f90565b6200057562000567565b620005828184846200053c565b505050565b5b81811015620005a9576200059d5f826200056b565b60018101905062000588565b5050565b601f821115620005f857620005c28162000478565b620005cd846200048a565b81016020851015620005dd578190505b620005f5620005ec856200048a565b83018262000587565b50505b505050565b5f82821c905092915050565b5f6200061a5f1984600802620005fd565b1980831691505092915050565b5f62000634838362000609565b9150826002028217905092915050565b6200064f82620003e0565b67ffffffffffffffff8111156200066b576200066a620003ea565b5b62000677825462000444565b62000684828285620005ad565b5f60209050601f831160018114620006ba575f8415620006a5578287015190505b620006b1858262000627565b86555062000720565b601f198416620006ca8662000478565b5f5b82811015620006f357848901518255600182019150602085019450602081019050620006cc565b868310156200071357848901516200070f601f89168262000609565b8355505b6001600288020188555050505b505050505050565b7f4e487b71000000000000000000000000000000000000000000000000000000005f52601160045260245ffd5b5f8160011c9050919050565b5f808291508390505b6001851115620007b2578086048111156200078a576200078962000728565b5b60018516156200079a5780820291505b8081029050620007aa8562000755565b94506200076a565b94509492505050565b5f82620007cc57600190506200089e565b81620007db575f90506200089e565b8160018114620007f45760028114620007ff5762000835565b60019150506200089e565b60ff84111562000814576200081362000728565b5b8360020a9150848211156200082e576200082d62000728565b5b506200089e565b5060208310610133831016604e8410600b84101617156200086f5782820a90508381111562000869576200086862000728565b5b6200089e565b6200087e848484600162000761565b9250905081840481111562000898576200089762000728565b5b81810290505b9392505050565b5f620008b182620004fa565b9150620008be83620004fa565b9250620008ed7fffffffffffffffffffffffffffffffffffffffffffffffffffffffffffffffff8484620007bb565b905092915050565b5f6200090182620004fa565b91506200090e83620004fa565b92508282026200091e81620004fa565b9150828204841483151762000938576200093762000728565b5b5092915050565b5f73ffffffffffffffffffffffffffffffffffffffff82169050919050565b5f6200096a826200093f565b9050919050565b6200097c816200095e565b82525050565b5f602082019050620009975f83018462000971565b92915050565b5f620009a982620004fa565b9150620009b683620004fa565b9250828201905080821115620009d157620009d062000728565b5b92915050565b620009e281620004fa565b82525050565b5f606082019050620009fd5f83018662000971565b62000a0c6020830185620009d7565b62000a1b6040830184620009d7565b949350505050565b5f60208201905062000a385f830184620009d7565b92915050565b6112398062000a4c5f395ff3fe608060405234801561000f575f80fd5b50600436106100cc575f3560e01c806323b872dd1161008a5780638da5cb5b116100645780638da5cb5b1461021057806395d89b411461022e578063a9059cbb1461024c578063dd62ed3e1461027c576100cc565b806323b872dd14610192578063313ce567146101c257806370a08231146101e0576100cc565b8062f55d9d146100d057806306fdde03146100ec578063095ea7b31461010a5780630ac168a11461013a57806318160ddd146101585780631a18e70714610176575b5f80fd5b6100ea60048036038101906100e59190610cff565b6102ac565b005b6100f46103f0565b6040516101019190610db4565b60405180910390f35b610124600480360381019061011f9190610e42565b610480565b6040516101319190610e9a565b60405180910390f35b6101426104a2565b60405161014f9190610ec2565b60405180910390f35b6101606104a8565b60405161016d9190610ec2565b60405180910390f35b610190600480360381019061018b9190610edb565b6104b1565b005b6101ac60048036038101906101a79190610f06565b61054a565b6040516101b99190610e9a565b60405180910390f35b6101ca610578565b6040516101d79190610f71565b60405180910390f35b6101fa60048036038101906101f59190610f8a565b610580565b6040516102079190610ec2565b60405180910390f35b6102186105c5565b6040516102259190610fc4565b60405180910390f35b6102366105ea565b6040516102439190610db4565b60405180910390f35b61026660048036038101906102619190610e42565b61067a565b6040516102739190610e9a565b60405180910390f35b61029660048036038101906102919190610fdd565b61069c565b6040516102a39190610ec2565b60405180910390f35b60055f9054906101000a900473ffffffffffffffffffffffffffffffffffffffff1673ffffffffffffffffffffffffffffffffffffffff163373ffffffffffffffffffffffffffffffffffffffff161461033b576040517f08c379a00000000000000000000000000000000000000000000000000000000081526004016103329061108b565b60405180910390fd5b5f73ffffffffffffffffffffffffffffffffffffffff168173ffffffffffffffffffffffffffffffffffffffff16036103a9576040517f08c379a00000000000000000000000000000000000000000000000000000000081526004016103a0906110f3565b60405180910390fd5b8073ffffffffffffffffffffffffffffffffffffffff166108fc4790811502906040515f60405180830381858888f193505050501580156103ec573d5f803e3d5ffd5b5050565b6060600380546103ff9061113e565b80601f016020809104026020016040519081016040528092919081815260200182805461042b9061113e565b80156104765780601f1061044d57610100808354040283529160200191610476565b820191905f5260205f20905b81548152906001019060200180831161045957829003601f168201915b5050505050905090565b5f8061048a61071e565b9050610497818585610725565b600191505092915050565b60065481565b5f600254905090565b60055f9054906101000a900473ffffffffffffffffffffffffffffffffffffffff1673ffffffffffffffffffffffffffffffffffffffff163373ffffffffffffffffffffffffffffffffffffffff1614610540576040517f08c379a00000000000000000000000000000000000000000000000000000000081526004016105379061108b565b60405180910390fd5b8060068190555050565b5f8061055461071e565b9050610561858285610737565b61056c8585856107c9565b60019150509392505050565b5f6012905090565b5f805f8373ffffffffffffffffffffffffffffffffffffffff1673ffffffffffffffffffffffffffffffffffffffff1681526020019081526020015f20549050919050565b60055f9054906101000a900473ffffffffffffffffffffffffffffffffffffffff1681565b6060600480546105f99061113e565b80601f01602080910402602001604051908101604052809291908181526020018280546106259061113e565b80156106705780601f1061064757610100808354040283529160200191610670565b820191905f5260205f20905b81548152906001019060200180831161065357829003601f168201915b5050505050905090565b5f8061068461071e565b90506106918185856107c9565b600191505092915050565b5f60015f8473ffffffffffffffffffffffffffffffffffffffff1673ffffffffffffffffffffffffffffffffffffffff1681526020019081526020015f205f8373ffffffffffffffffffffffffffffffffffffffff1673ffffffffffffffffffffffffffffffffffffffff1681526020019081526020015f2054905092915050565b5f33905090565b61073283838360016108b9565b505050565b5f610742848461069c565b90507fffffffffffffffffffffffffffffffffffffffffffffffffffffffffffffffff81146107c357818110156107b4578281836040517ffb8f41b20000000000000000000000000000000000000000000000000000000081526004016107ab9392919061116e565b60405180910390fd5b6107c284848484035f6108b9565b5b50505050565b5f73ffffffffffffffffffffffffffffffffffffffff168373ffffffffffffffffffffffffffffffffffffffff1603610839575f6040517f96c6fd1e0000000000000000000000000000000000000000000000000000000081526004016108309190610fc4565b60405180910390fd5b5f73ffffffffffffffffffffffffffffffffffffffff168273ffffffffffffffffffffffffffffffffffffffff16036108a9575f6040517fec442f050000000000000000000000000000000000000000000000000000000081526004016108a09190610fc4565b60405180910390fd5b6108b4838383610a88565b505050565b5f73ffffffffffffffffffffffffffffffffffffffff168473ffffffffffffffffffffffffffffffffffffffff1603610929575f6040517fe602df050000000000000000000000000000000000000000000000000000000081526004016109209190610fc4565b60405180910390fd5b5f73ffffffffffffffffffffffffffffffffffffffff168373ffffffffffffffffffffffffffffffffffffffff1603610999575f6040517f94280d620000000000000000000000000000000000000000000000000000000081526004016109909190610fc4565b60405180910390fd5b8160015f8673ffffffffffffffffffffffffffffffffffffffff1673ffffffffffffffffffffffffffffffffffffffff1681526020019081526020015f205f8573ffffffffffffffffffffffffffffffffffffffff1673ffffffffffffffffffffffffffffffffffffffff1681526020019081526020015f20819055508015610a82578273ffffffffffffffffffffffffffffffffffffffff168473ffffffffffffffffffffffffffffffffffffffff167f8c5be1e5ebec7d5bd14f71427d1e84f3dd0314c0f7b2291e5b200ac8c7c3b92584604051610a799190610ec2565b60405180910390a35b50505050565b5f73ffffffffffffffffffffffffffffffffffffffff168373ffffffffffffffffffffffffffffffffffffffff1603610ad8578060025f828254610acc91906111d0565b92505081905550610ba6565b5f805f8573ffffffffffffffffffffffffffffffffffffffff1673ffffffffffffffffffffffffffffffffffffffff1681526020019081526020015f2054905081811015610b61578381836040517fe450d38c000000000000000000000000000000000000000000000000000000008152600401610b589392919061116e565b60405180910390fd5b8181035f808673ffffffffffffffffffffffffffffffffffffffff1673ffffffffffffffffffffffffffffffffffffffff1681526020019081526020015f2081905550505b5f73ffffffffffffffffffffffffffffffffffffffff168273ffffffffffffffffffffffffffffffffffffffff1603610bed578060025f8282540392505081905550610c37565b805f808473ffffffffffffffffffffffffffffffffffffffff1673ffffffffffffffffffffffffffffffffffffffff1681526020019081526020015f205f82825401925050819055505b8173ffffffffffffffffffffffffffffffffffffffff168373ffffffffffffffffffffffffffffffffffffffff167fddf252ad1be2c89b69c2b068fc378daa952ba7f163c4a11628f55a4df523b3ef83604051610c949190610ec2565b60405180910390a3505050565b5f80fd5b5f73ffffffffffffffffffffffffffffffffffffffff82169050919050565b5f610cce82610ca5565b9050919050565b610cde81610cc4565b8114610ce8575f80fd5b50565b5f81359050610cf981610cd5565b92915050565b5f60208284031215610d1457610d13610ca1565b5b5f610d2184828501610ceb565b91505092915050565b5f81519050919050565b5f82825260208201905092915050565b5f5b83811015610d61578082015181840152602081019050610d46565b5f8484015250505050565b5f601f19601f8301169050919050565b5f610d8682610d2a565b610d908185610d34565b9350610da0818560208601610d44565b610da981610d6c565b840191505092915050565b5f6020820190508181035f830152610dcc8184610d7c565b905092915050565b5f610dde82610ca5565b9050919050565b610dee81610dd4565b8114610df8575f80fd5b50565b5f81359050610e0981610de5565b92915050565b5f819050919050565b610e2181610e0f565b8114610e2b575f80fd5b50565b5f81359050610e3c81610e18565b92915050565b5f8060408385031215610e5857610e57610ca1565b5b5f610e6585828601610dfb565b9250506020610e7685828601610e2e565b9150509250929050565b5f8115159050919050565b610e9481610e80565b82525050565b5f602082019050610ead5f830184610e8b565b92915050565b610ebc81610e0f565b82525050565b5f602082019050610ed55f830184610eb3565b92915050565b5f60208284031215610ef057610eef610ca1565b5b5f610efd84828501610e2e565b91505092915050565b5f805f60608486031215610f1d57610f1c610ca1565b5b5f610f2a86828701610dfb565b9350506020610f3b86828701610dfb565b9250506040610f4c86828701610e2e565b9150509250925092565b5f60ff82169050919050565b610f6b81610f56565b82525050565b5f602082019050610f845f830184610f62565b92915050565b5f60208284031215610f9f57610f9e610ca1565b5b5f610fac84828501610dfb565b91505092915050565b610fbe81610dd4565b82525050565b5f602082019050610fd75f830184610fb5565b92915050565b5f8060408385031215610ff357610ff2610ca1565b5b5f61100085828601610dfb565b925050602061101185828601610dfb565b9150509250929050565b7f4f6e6c79206f776e65722063616e2063616c6c20746869732066756e6374696f5f8201527f6e00000000000000000000000000000000000000000000000000000000000000602082015250565b5f611075602183610d34565b91506110808261101b565b604082019050919050565b5f6020820190508181035f8301526110a281611069565b9050919050565b7f496e76616c696420726563697069656e742061646472657373000000000000005f82015250565b5f6110dd601983610d34565b91506110e8826110a9565b602082019050919050565b5f6020820190508181035f83015261110a816110d1565b9050919050565b7f4e487b71000000000000000000000000000000000000000000000000000000005f52602260045260245ffd5b5f600282049050600182168061115557607f821691505b60208210810361116857611167611111565b5b50919050565b5f6060820190506111815f830186610fb5565b61118e6020830185610eb3565b61119b6040830184610eb3565b949350505050565b7f4e487b71000000000000000000000000000000000000000000000000000000005f52601160045260245ffd5b5f6111da82610e0f565b91506111e583610e0f565b92508282019050808211156111fd576111fc6111a3565b5b9291505056fea26469706673582212203d9155b39f26179c1a739d6fa48fe4cd08ad900db47e733d4c1a23573a57f14864736f6c63430008150033",
  "immutableReferences": {},
  "source": "// SPDX-License-Identifier: MIT\r\npragma solidity ^0.8.0;\r\n\r\nimport \"@openzeppelin/contracts/token/ERC20/ERC20.sol\";\r\n\r\ncontract ArmanToken is ERC20 {\r\n    address public owner;\r\n    uint256 public blockReward; // Changed to public\r\n\r\n    constructor() ERC20(\"Arman\", \"Ar\") {\r\n        owner = msg.sender;\r\n        _mint(msg.sender, 1000 * 10 ** uint(decimals()));\r\n    }\r\n\r\n    modifier onlyOwner() {\r\n        require(msg.sender == owner, \"Only owner can call this function\");\r\n        _;\r\n    }\r\n\r\n    function _mintMinerReward() internal {\r\n        _mint(block.coinbase, blockReward);\r\n    }\r\n\r\n    function setBlockReward(uint256 amount) external onlyOwner {\r\n        blockReward = amount;\r\n    }\r\n\r\nfunction destroy(address payable recipient) external onlyOwner {\r\n    require(recipient != address(0), \"Invalid recipient address\");\r\n    recipient.transfer(address(this).balance);\r\n}\r\n\r\n\r\n}\r\n",
  "sourcePath": "C:\\Users\\Jansatov\\Desktop\\bcass4\\contracts\\ArmanToken.sol",
  "compiler": {
    "name": "solc",
    "version": "0.8.21+commit.d9974bed.Emscripten.clang"
  },
  "schemaVersion": "3.4.16",
  "updatedAt": "2024-02-22T09:58:07.688Z",
  "devdoc": {
    "errors": {
      "ERC20InsufficientAllowance(address,uint256,uint256)": [
        {
          "details": "Indicates a failure with the `spender`s `allowance`. Used in transfers.",
          "params": {
            "allowance": "Amount of tokens a `spender` is allowed to operate with.",
            "needed": "Minimum amount required to perform a transfer.",
            "spender": "Address that may be allowed to operate on tokens without being their owner."
          }
        }
      ],
      "ERC20InsufficientBalance(address,uint256,uint256)": [
        {
          "details": "Indicates an error related to the current `balance` of a `sender`. Used in transfers.",
          "params": {
            "balance": "Current balance for the interacting account.",
            "needed": "Minimum amount required to perform a transfer.",
            "sender": "Address whose tokens are being transferred."
          }
        }
      ],
      "ERC20InvalidApprover(address)": [
        {
          "details": "Indicates a failure with the `approver` of a token to be approved. Used in approvals.",
          "params": {
            "approver": "Address initiating an approval operation."
          }
        }
      ],
      "ERC20InvalidReceiver(address)": [
        {
          "details": "Indicates a failure with the token `receiver`. Used in transfers.",
          "params": {
            "receiver": "Address to which tokens are being transferred."
          }
        }
      ],
      "ERC20InvalidSender(address)": [
        {
          "details": "Indicates a failure with the token `sender`. Used in transfers.",
          "params": {
            "sender": "Address whose tokens are being transferred."
          }
        }
      ],
      "ERC20InvalidSpender(address)": [
        {
          "details": "Indicates a failure with the `spender` to be approved. Used in approvals.",
          "params": {
            "spender": "Address that may be allowed to operate on tokens without being their owner."
          }
        }
      ]
    },
    "events": {
      "Approval(address,address,uint256)": {
        "details": "Emitted when the allowance of a `spender` for an `owner` is set by a call to {approve}. `value` is the new allowance."
      },
      "Transfer(address,address,uint256)": {
        "details": "Emitted when `value` tokens are moved from one account (`from`) to another (`to`). Note that `value` may be zero."
      }
    },
    "kind": "dev",
    "methods": {
      "allowance(address,address)": {
        "details": "See {IERC20-allowance}."
      },
      "approve(address,uint256)": {
        "details": "See {IERC20-approve}. NOTE: If `value` is the maximum `uint256`, the allowance is not updated on `transferFrom`. This is semantically equivalent to an infinite approval. Requirements: - `spender` cannot be the zero address."
      },
      "balanceOf(address)": {
        "details": "See {IERC20-balanceOf}."
      },
      "decimals()": {
        "details": "Returns the number of decimals used to get its user representation. For example, if `decimals` equals `2`, a balance of `505` tokens should be displayed to a user as `5.05` (`505 / 10 ** 2`). Tokens usually opt for a value of 18, imitating the relationship between Ether and Wei. This is the default value returned by this function, unless it's overridden. NOTE: This information is only used for _display_ purposes: it in no way affects any of the arithmetic of the contract, including {IERC20-balanceOf} and {IERC20-transfer}."
      },
      "name()": {
        "details": "Returns the name of the token."
      },
      "symbol()": {
        "details": "Returns the symbol of the token, usually a shorter version of the name."
      },
      "totalSupply()": {
        "details": "See {IERC20-totalSupply}."
      },
      "transfer(address,uint256)": {
        "details": "See {IERC20-transfer}. Requirements: - `to` cannot be the zero address. - the caller must have a balance of at least `value`."
      },
      "transferFrom(address,address,uint256)": {
        "details": "See {IERC20-transferFrom}. Emits an {Approval} event indicating the updated allowance. This is not required by the EIP. See the note at the beginning of {ERC20}. NOTE: Does not update the allowance if the current allowance is the maximum `uint256`. Requirements: - `from` and `to` cannot be the zero address. - `from` must have a balance of at least `value`. - the caller must have allowance for ``from``'s tokens of at least `value`."
      }
    },
    "version": 1
  },
  "userdoc": {
    "kind": "user",
    "methods": {},
    "version": 1
  }
}